{
  "_format": "hh-sol-artifact-1",
  "contractName": "BurnContract",
  "sourceName": "contracts/BurnContract.sol",
  "abi": [
    {
      "inputs": [
        {
          "internalType": "address",
          "name": "_gateway",
          "type": "address"
        },
        {
          "internalType": "address",
          "name": "_gasReceiver",
          "type": "address"
        },
        {
          "internalType": "address",
          "name": "_sBTC",
          "type": "address"
        }
      ],
      "stateMutability": "nonpayable",
      "type": "constructor"
    },
    {
      "inputs": [],
      "name": "InvalidAddress",
      "type": "error"
    },
    {
      "inputs": [],
      "name": "NotApprovedByGateway",
      "type": "error"
    },
    {
      "anonymous": false,
      "inputs": [
        {
          "indexed": false,
          "internalType": "address",
          "name": "_from",
          "type": "address"
        },
        {
          "indexed": false,
          "internalType": "uint256",
          "name": "_amount",
          "type": "uint256"
        }
      ],
      "name": "Burned",
      "type": "event"
    },
    {
      "anonymous": false,
      "inputs": [
        {
          "indexed": false,
          "internalType": "string",
          "name": "_from",
          "type": "string"
        },
        {
          "indexed": false,
          "internalType": "string",
          "name": "_to",
          "type": "string"
        }
      ],
      "name": "Executed",
      "type": "event"
    },
    {
      "anonymous": false,
      "inputs": [
        {
          "indexed": true,
          "internalType": "address",
          "name": "previousOwner",
          "type": "address"
        },
        {
          "indexed": true,
          "internalType": "address",
          "name": "newOwner",
          "type": "address"
        }
      ],
      "name": "OwnershipTransferred",
      "type": "event"
    },
    {
      "inputs": [
        {
          "internalType": "string",
          "name": "destinationChain",
          "type": "string"
        },
        {
          "internalType": "string",
          "name": "destinationAddress",
          "type": "string"
        },
        {
          "internalType": "uint256",
          "name": "_amount",
          "type": "uint256"
        },
        {
          "internalType": "string",
          "name": "btcTxHex",
          "type": "string"
        }
      ],
      "name": "callBurn",
      "outputs": [],
      "stateMutability": "nonpayable",
      "type": "function"
    },
    {
      "inputs": [],
      "name": "claimOwnership",
      "outputs": [],
      "stateMutability": "nonpayable",
      "type": "function"
    },
    {
      "inputs": [
        {
          "internalType": "bytes32",
          "name": "commandId",
          "type": "bytes32"
        },
        {
          "internalType": "string",
          "name": "sourceChain",
          "type": "string"
        },
        {
          "internalType": "string",
          "name": "sourceAddress",
          "type": "string"
        },
        {
          "internalType": "bytes",
          "name": "payload",
          "type": "bytes"
        }
      ],
      "name": "execute",
      "outputs": [],
      "stateMutability": "nonpayable",
      "type": "function"
    },
    {
      "inputs": [
        {
          "internalType": "bytes32",
          "name": "commandId",
          "type": "bytes32"
        },
        {
          "internalType": "string",
          "name": "sourceChain",
          "type": "string"
        },
        {
          "internalType": "string",
          "name": "sourceAddress",
          "type": "string"
        },
        {
          "internalType": "bytes",
          "name": "payload",
          "type": "bytes"
        },
        {
          "internalType": "string",
          "name": "tokenSymbol",
          "type": "string"
        },
        {
          "internalType": "uint256",
          "name": "amount",
          "type": "uint256"
        }
      ],
      "name": "executeWithToken",
      "outputs": [],
      "stateMutability": "nonpayable",
      "type": "function"
    },
    {
      "inputs": [],
      "name": "gasService",
      "outputs": [
        {
          "internalType": "contract IAxelarGasService",
          "name": "",
          "type": "address"
        }
      ],
      "stateMutability": "view",
      "type": "function"
    },
    {
      "inputs": [],
      "name": "gateway",
      "outputs": [
        {
          "internalType": "contract IAxelarGateway",
          "name": "",
          "type": "address"
        }
      ],
      "stateMutability": "view",
      "type": "function"
    },
    {
      "inputs": [],
      "name": "owner",
      "outputs": [
        {
          "internalType": "address",
          "name": "",
          "type": "address"
        }
      ],
      "stateMutability": "view",
      "type": "function"
    },
    {
      "inputs": [],
      "name": "pendingOwner",
      "outputs": [
        {
          "internalType": "address",
          "name": "",
          "type": "address"
        }
      ],
      "stateMutability": "view",
      "type": "function"
    },
    {
      "inputs": [],
      "name": "sbtc",
      "outputs": [
        {
          "internalType": "contract sBTC",
          "name": "",
          "type": "address"
        }
      ],
      "stateMutability": "view",
      "type": "function"
    },
    {
      "inputs": [],
      "name": "sourceAddress",
      "outputs": [
        {
          "internalType": "string",
          "name": "",
          "type": "string"
        }
      ],
      "stateMutability": "view",
      "type": "function"
    },
    {
      "inputs": [],
      "name": "sourceChain",
      "outputs": [
        {
          "internalType": "string",
          "name": "",
          "type": "string"
        }
      ],
      "stateMutability": "view",
      "type": "function"
    },
    {
      "inputs": [
        {
          "internalType": "address",
          "name": "newOwner",
          "type": "address"
        },
        {
          "internalType": "bool",
          "name": "direct",
          "type": "bool"
        },
        {
          "internalType": "bool",
          "name": "renounce",
          "type": "bool"
        }
      ],
      "name": "transferOwnership",
      "outputs": [],
      "stateMutability": "nonpayable",
      "type": "function"
    }
  ],
  "bytecode": "0x60c060405234801561001057600080fd5b5060405161126a38038061126a83398101604081905261002f916100e7565b826001600160a01b0381166100575760405163e6c4247b60e01b815260040160405180910390fd5b6001600160a01b0316608052600080546001600160a01b0319163390811782556040519091907f8be0079c531659141344cd1fd0a4f28419497f9722a3daafe3b4186f6b6457e0908290a36001600160a01b0391821660a052600280546001600160a01b031916919092161790555061012a565b80516001600160a01b03811681146100e257600080fd5b919050565b6000806000606084860312156100fc57600080fd5b610105846100cb565b9250610113602085016100cb565b9150610121604085016100cb565b90509250925092565b60805160a051611107610163600039600061015a01526000818160d301528181610344015281816104b501526108a301526111076000f3fe608060405234801561001057600080fd5b50600436106100b45760003560e01c80636a22d8cc116100715780636a22d8cc146101555780638da5cb5b1461017c578063a94c71bc1461018f578063b0fa8444146101a2578063ddc2b238146101aa578063e30c3978146101bd57600080fd5b8063078dfbe7146100b9578063116191b6146100ce5780631a98b2e0146101125780631c6ffa4614610125578063491606581461013a5780634e71e0c81461014d575b600080fd5b6100cc6100c73660046109a9565b6101d0565b005b6100f57f000000000000000000000000000000000000000000000000000000000000000081565b6040516001600160a01b0390911681526020015b60405180910390f35b6100cc610120366004610a49565b610313565b61012d6103f6565b6040516101099190610b69565b6100cc610148366004610b83565b610484565b6100cc61056c565b6100f57f000000000000000000000000000000000000000000000000000000000000000081565b6000546100f5906001600160a01b031681565b6100cc61019d366004610c27565b610629565b61012d61091c565b6002546100f5906001600160a01b031681565b6001546100f5906001600160a01b031681565b6000546001600160a01b0316331461022f5760405162461bcd60e51b815260206004820181905260248201527f4f776e61626c653a2063616c6c6572206973206e6f7420746865206f776e657260448201526064015b60405180910390fd5b81156102f2576001600160a01b0383161515806102495750805b61028d5760405162461bcd60e51b81526020600482015260156024820152744f776e61626c653a207a65726f206164647265737360581b6044820152606401610226565b600080546040516001600160a01b03808716939216917f8be0079c531659141344cd1fd0a4f28419497f9722a3daafe3b4186f6b6457e091a3600080546001600160a01b0385166001600160a01b031991821617909155600180549091169055505050565b600180546001600160a01b0319166001600160a01b0385161790555b505050565b60008585604051610325929190610cab565b604051908190038120631876eed960e01b825291506001600160a01b037f00000000000000000000000000000000000000000000000000000000000000001690631876eed990610389908e908e908e908e908e9089908d908d908d90600401610ce4565b6020604051808303816000875af11580156103a8573d6000803e3d6000fd5b505050506040513d601f19601f820116820180604052508101906103cc9190610d43565b6103e957604051631403112d60e21b815260040160405180910390fd5b5050505050505050505050565b6003805461040390610d60565b80601f016020809104026020016040519081016040528092919081815260200182805461042f90610d60565b801561047c5780601f106104515761010080835404028352916020019161047c565b820191906000526020600020905b81548152906001019060200180831161045f57829003601f168201915b505050505081565b60008282604051610496929190610cab565b604051908190038120635f6970c360e01b825291506001600160a01b037f00000000000000000000000000000000000000000000000000000000000000001690635f6970c3906104f4908b908b908b908b908b908990600401610d9a565b6020604051808303816000875af1158015610513573d6000803e3d6000fd5b505050506040513d601f19601f820116820180604052508101906105379190610d43565b61055457604051631403112d60e21b815260040160405180910390fd5b610562878787878787610929565b5050505050505050565b6001546001600160a01b03163381146105c75760405162461bcd60e51b815260206004820181905260248201527f4f776e61626c653a2063616c6c657220213d2070656e64696e67206f776e65726044820152606401610226565b600080546040516001600160a01b03808516939216917f8be0079c531659141344cd1fd0a4f28419497f9722a3daafe3b4186f6b6457e091a3600080546001600160a01b039092166001600160a01b0319928316179055600180549091169055565b6000831161068d5760405162461bcd60e51b815260206004820152602b60248201527f4275726e436f6e74726163743a20616d6f756e74206d7573742062652067726560448201526a061746572207468616e20360ac1b6064820152608401610226565b6002546040516370a0823160e01b81523360048201526001600160a01b03909116906370a0823190602401602060405180830381865afa1580156106d5573d6000803e3d6000fd5b505050506040513d601f19601f820116820180604052508101906106f99190610ddb565b8311156107535760405162461bcd60e51b815260206004820152602260248201527f4275726e436f6e74726163743a20696e73756666696369656e742062616c616e604482015261636560f01b6064820152608401610226565b6002546040516323b872dd60e01b8152336004820152306024820152604481018590526001600160a01b03909116906323b872dd906064016020604051808303816000875af11580156107aa573d6000803e3d6000fd5b505050506040513d601f19601f820116820180604052508101906107ce9190610d43565b50600254604051630852cd8d60e31b8152600481018590526001600160a01b03909116906342966c6890602401600060405180830381600087803b15801561081557600080fd5b505af1158015610829573d6000803e3d6000fd5b505060408051338152602081018790527f696de425f79f4a40bc6d2122ca50507f0efbeabbff86a84871b7196ab8ea8df7935001905060405180910390a16000828260405160200161087c929190610df4565b60408051601f1981840301815290829052631c92115f60e01b825291506001600160a01b037f00000000000000000000000000000000000000000000000000000000000000001690631c92115f906108e0908b908b908b908b908890600401610e10565b600060405180830381600087803b1580156108fa57600080fd5b505af115801561090e573d6000803e3d6000fd5b505050505050505050505050565b6004805461040390610d60565b600061093782840184610e6d565b90506003610946878983610f6e565b506004610954858783610f6e565b507f0d97a9033491f569feb4c72abf12722b227eec24ee13547bec3654f8663ff71160048260405161098792919061102f565b60405180910390a150505050505050565b80151581146109a657600080fd5b50565b6000806000606084860312156109be57600080fd5b83356001600160a01b03811681146109d557600080fd5b925060208401356109e581610998565b915060408401356109f581610998565b809150509250925092565b60008083601f840112610a1257600080fd5b50813567ffffffffffffffff811115610a2a57600080fd5b602083019150836020828501011115610a4257600080fd5b9250929050565b60008060008060008060008060008060c08b8d031215610a6857600080fd5b8a35995060208b013567ffffffffffffffff80821115610a8757600080fd5b610a938e838f01610a00565b909b50995060408d0135915080821115610aac57600080fd5b610ab88e838f01610a00565b909950975060608d0135915080821115610ad157600080fd5b610add8e838f01610a00565b909750955060808d0135915080821115610af657600080fd5b50610b038d828e01610a00565b9150809450508092505060a08b013590509295989b9194979a5092959850565b6000815180845260005b81811015610b4957602081850181015186830182015201610b2d565b506000602082860101526020601f19601f83011685010191505092915050565b602081526000610b7c6020830184610b23565b9392505050565b60008060008060008060006080888a031215610b9e57600080fd5b87359650602088013567ffffffffffffffff80821115610bbd57600080fd5b610bc98b838c01610a00565b909850965060408a0135915080821115610be257600080fd5b610bee8b838c01610a00565b909650945060608a0135915080821115610c0757600080fd5b50610c148a828b01610a00565b989b979a50959850939692959293505050565b60008060008060008060006080888a031215610c4257600080fd5b873567ffffffffffffffff80821115610c5a57600080fd5b610c668b838c01610a00565b909950975060208a0135915080821115610c7f57600080fd5b610c8b8b838c01610a00565b909750955060408a0135945060608a0135915080821115610c0757600080fd5b8183823760009101908152919050565b81835281816020850137506000828201602090810191909152601f909101601f19169091010190565b89815260c060208201526000610cfe60c083018a8c610cbb565b8281036040840152610d1181898b610cbb565b90508660608401528281036080840152610d2c818688610cbb565b9150508260a08301529a9950505050505050505050565b600060208284031215610d5557600080fd5b8151610b7c81610998565b600181811c90821680610d7457607f821691505b602082108103610d9457634e487b7160e01b600052602260045260246000fd5b50919050565b868152608060208201526000610db4608083018789610cbb565b8281036040840152610dc7818688610cbb565b915050826060830152979650505050505050565b600060208284031215610ded57600080fd5b5051919050565b602081526000610e08602083018486610cbb565b949350505050565b606081526000610e24606083018789610cbb565b8281036020840152610e37818688610cbb565b90508281036040840152610e4b8185610b23565b98975050505050505050565b634e487b7160e01b600052604160045260246000fd5b600060208284031215610e7f57600080fd5b813567ffffffffffffffff80821115610e9757600080fd5b818401915084601f830112610eab57600080fd5b813581811115610ebd57610ebd610e57565b604051601f8201601f19908116603f01168101908382118183101715610ee557610ee5610e57565b81604052828152876020848701011115610efe57600080fd5b826020860160208301376000928101602001929092525095945050505050565b601f82111561030e576000816000526020600020601f850160051c81016020861015610f475750805b601f850160051c820191505b81811015610f6657828155600101610f53565b505050505050565b67ffffffffffffffff831115610f8657610f86610e57565b610f9a83610f948354610d60565b83610f1e565b6000601f841160018114610fce5760008515610fb65750838201355b600019600387901b1c1916600186901b178355611028565b600083815260209020601f19861690835b82811015610fff5786850135825560209485019460019092019101610fdf565b508682101561101c5760001960f88860031b161c19848701351681555b505060018560011b0183555b5050505050565b60408152600080845461104181610d60565b8060408601526060600180841660008114611063576001811461107f576110b1565b60ff1985166060890152606084151560051b89010195506110b1565b8960005260208060002060005b868110156110a75781548b820187015290840190820161108c565b8a01606001975050505b505050505082810360208401526110c88185610b23565b9594505050505056fea26469706673582212203c5ceb5977c72b6d7eef27f80ffe2988df5fe44adbf6ff83e472642a1b9e044f64736f6c63430008180033",
  "linkReferences": {},
  "deployedLinkReferences": {}
}